:020000020000FC
:020000001CC022
:020004005EC0DC
:020008006EC0C8
:0200340072C098
:1000380030C0F89400E80093610000E0009361008C
:10004800509A569A579A3B9A3C9A00E004BD05BDCF
:1000580002E004BD01E005BD08EF07BD00E00BB9F3
:1000680002E000936E000EE00093690002E00DBB11
:1000780000E00093800001E00093810001E000931C
:100088006F0000E030E040E070E0789400C00000CD
:10009800FECFF894703031F400C05E9A71E0789425
:1000A800370FF5CF5E9870E07894F1CF5E9870E0E6
:1000B80000E0009325007894EACFF89400E005BDAD
:1000C80000E00093810010918400209185005E98E3
:1000D80070E04398449802E00DBB7894D8CFF89428
:1000E80000E006BD009384000093850001E005BD93
:1000F80001E00093810001E00DBB30E0483029F0B9
:1001080000C048E0439A7894C2CF40E1449A78947A
:10011800BECFF894603029F400C0589A61E0789412
:0A012800B6CF589860E07894B2CF8B
:00000001FF
